{
  "_format": "hh-sol-artifact-1",
  "contractName": "Calend3",
  "sourceName": "contracts/Calend3.sol",
  "abi": [
    {
      "inputs": [],
      "stateMutability": "nonpayable",
      "type": "constructor"
    },
    {
      "inputs": [
        {
          "internalType": "string",
          "name": "title",
          "type": "string"
        },
        {
          "internalType": "uint256",
          "name": "startTime",
          "type": "uint256"
        },
        {
          "internalType": "uint256",
          "name": "endTime",
          "type": "uint256"
        }
      ],
      "name": "createAppointment",
      "outputs": [],
      "stateMutability": "payable",
      "type": "function"
    },
    {
      "inputs": [],
      "name": "getAppointments",
      "outputs": [
        {
          "components": [
            {
              "internalType": "string",
              "name": "title",
              "type": "string"
            },
            {
              "internalType": "address",
              "name": "attendee",
              "type": "address"
            },
            {
              "internalType": "uint256",
              "name": "startTime",
              "type": "uint256"
            },
            {
              "internalType": "uint256",
              "name": "endTime",
              "type": "uint256"
            },
            {
              "internalType": "uint256",
              "name": "amountPaid",
              "type": "uint256"
            }
          ],
          "internalType": "struct Calend3.Appointment[]",
          "name": "",
          "type": "tuple[]"
        }
      ],
      "stateMutability": "view",
      "type": "function"
    },
    {
      "inputs": [],
      "name": "getRate",
      "outputs": [
        {
          "internalType": "uint256",
          "name": "",
          "type": "uint256"
        }
      ],
      "stateMutability": "nonpayable",
      "type": "function"
    },
    {
      "inputs": [],
      "name": "owner",
      "outputs": [
        {
          "internalType": "address payable",
          "name": "",
          "type": "address"
        }
      ],
      "stateMutability": "view",
      "type": "function"
    },
    {
      "inputs": [
        {
          "internalType": "uint256",
          "name": "_rate",
          "type": "uint256"
        }
      ],
      "name": "setRate",
      "outputs": [],
      "stateMutability": "nonpayable",
      "type": "function"
    }
  ],
  "bytecode": "0x608060405234801561001057600080fd5b50600180546001600160a01b031916331790556106dd806100326000396000f3fe60806040526004361061004a5760003560e01c806334fcf4371461004f57806359c35bdf14610071578063679aefce146100845780638da5cb5b146100a757806396b80d08146100df575b600080fd5b34801561005b57600080fd5b5061006f61006a3660046104f7565b610101565b005b61006f61007f36600461043c565b610164565b34801561009057600080fd5b506000546040519081526020015b60405180910390f35b3480156100b357600080fd5b506001546100c7906001600160a01b031681565b6040516001600160a01b03909116815260200161009e565b3480156100eb57600080fd5b506100f461027b565b60405161009e919061050f565b6001546001600160a01b0316331461015f5760405162461bcd60e51b815260206004820181905260248201527f4f6e6c7920746865206f776e65722063616e207365742074686520726174652e604482015260640160405180910390fd5b600055565b61019f6040518060a001604052806060815260200160006001600160a01b031681526020016000815260200160008152602001600081525090565b8381526040810183905260608101829052600054603c6101bf8585610629565b6101c991906105ea565b6101d3919061060a565b6080820152336020808301919091526002805460018101825560009190915282518051849360059093027f405787fa12a823e0f2b7631cc41b3ba8828b3321ca811111fa75cd3aa3bb5ace019261022e9284929101906103a3565b5060208201516001820180546001600160a01b0319166001600160a01b03909216919091179055604082015160028201556060820151600382015560809091015160049091015550505050565b60606002805480602002602001604051908101604052809291908181526020016000905b8282101561039a57838290600052602060002090600502016040518060a00160405290816000820180546102d290610640565b80601f01602080910402602001604051908101604052809291908181526020018280546102fe90610640565b801561034b5780601f106103205761010080835404028352916020019161034b565b820191906000526020600020905b81548152906001019060200180831161032e57829003601f168201915b50505091835250506001828101546001600160a01b031660208084019190915260028401546040840152600384015460608401526004909301546080909201919091529183529201910161029f565b50505050905090565b8280546103af90610640565b90600052602060002090601f0160209004810192826103d15760008555610417565b82601f106103ea57805160ff1916838001178555610417565b82800160010185558215610417579182015b828111156104175782518255916020019190600101906103fc565b50610423929150610427565b5090565b5b808211156104235760008155600101610428565b600080600060608486031215610450578283fd5b833567ffffffffffffffff80821115610467578485fd5b818601915086601f83011261047a578485fd5b81358181111561048c5761048c610691565b604051601f8201601f19908116603f011681019083821181831017156104b4576104b4610691565b816040528281528960208487010111156104cc578788fd5b8260208601602083013791820160209081019790975250979486013596505050604090930135925050565b600060208284031215610508578081fd5b5035919050565b60006020808301818452808551808352604092508286019150828160051b870101848801865b838110156105dc57603f19898403018552815160a08151818652805180838801528b92505b80831015610578578183018b015187840160c00152918a019161055a565b80831115610589578b60c082890101525b838b01516001600160a01b038116888d01529250838a0151878b01526060808501519088015260809384015193870193909352505094870194601f01601f191690920160c0019190860190600101610535565b509098975050505050505050565b60008261060557634e487b7160e01b81526012600452602481fd5b500490565b60008160001904831182151516156106245761062461067b565b500290565b60008282101561063b5761063b61067b565b500390565b600181811c9082168061065457607f821691505b6020821081141561067557634e487b7160e01b600052602260045260246000fd5b50919050565b634e487b7160e01b600052601160045260246000fd5b634e487b7160e01b600052604160045260246000fdfea2646970667358221220f45fc9906b7cfb2c2f95523a1cec636b61f89da3befde7954ba5ef0d7edd785b64736f6c63430008040033",
  "linkReferences": {},
  "deployedLinkReferences": {}
}