{
  "_format": "hh-sol-artifact-1",
  "contractName": "Calend3",
  "sourceName": "contracts/Calend3.sol",
  "abi": [
    {
      "inputs": [],
      "stateMutability": "nonpayable",
      "type": "constructor"
    },
    {
      "inputs": [
        {
          "internalType": "string",
          "name": "title",
          "type": "string"
        },
        {
          "internalType": "uint256",
          "name": "startTime",
          "type": "uint256"
        },
        {
          "internalType": "uint256",
          "name": "endTime",
          "type": "uint256"
        }
      ],
      "name": "createAppointment",
      "outputs": [],
      "stateMutability": "payable",
      "type": "function"
    },
    {
      "inputs": [],
      "name": "getAppointments",
      "outputs": [
        {
          "components": [
            {
              "internalType": "string",
              "name": "title",
              "type": "string"
            },
            {
              "internalType": "address",
              "name": "attendee",
              "type": "address"
            },
            {
              "internalType": "uint256",
              "name": "startTime",
              "type": "uint256"
            },
            {
              "internalType": "uint256",
              "name": "endTime",
              "type": "uint256"
            },
            {
              "internalType": "uint256",
              "name": "amountPaid",
              "type": "uint256"
            }
          ],
          "internalType": "struct Calend3.Appointment[]",
          "name": "",
          "type": "tuple[]"
        }
      ],
      "stateMutability": "view",
      "type": "function"
    },
    {
      "inputs": [],
      "name": "getRate",
      "outputs": [
        {
          "internalType": "uint256",
          "name": "",
          "type": "uint256"
        }
      ],
      "stateMutability": "nonpayable",
      "type": "function"
    },
    {
      "inputs": [],
      "name": "owner",
      "outputs": [
        {
          "internalType": "address payable",
          "name": "",
          "type": "address"
        }
      ],
      "stateMutability": "view",
      "type": "function"
    },
    {
      "inputs": [
        {
          "internalType": "uint256",
          "name": "_rate",
          "type": "uint256"
        }
      ],
      "name": "setRate",
      "outputs": [],
      "stateMutability": "nonpayable",
      "type": "function"
    }
  ],
  "bytecode": "0x608060405234801561001057600080fd5b50600180546001600160a01b031916331790556107bd806100326000396000f3fe60806040526004361061004a5760003560e01c806334fcf4371461004f57806359c35bdf14610071578063679aefce146100845780638da5cb5b146100a757806396b80d08146100df575b600080fd5b34801561005b57600080fd5b5061006f61006a3660046105d7565b610101565b005b61006f61007f36600461051c565b610165565b34801561009057600080fd5b506000546040519081526020015b60405180910390f35b3480156100b357600080fd5b506001546100c7906001600160a01b031681565b6040516001600160a01b03909116815260200161009e565b3480156100eb57600080fd5b506100f461035b565b60405161009e91906105ef565b6001546001600160a01b031633146101605760405162461bcd60e51b815260206004820181905260248201527f4f6e6c7920746865206f776e65722063616e207365742074686520726174652e60448201526064015b60405180910390fd5b600055565b6101a06040518060a001604052806060815260200160006001600160a01b031681526020016000815260200160008152602001600081525090565b8381526040810183905260608101829052600054603c6101c08585610709565b6101ca91906106ca565b6101d491906106ea565b608082018190523360208301523410156102285760405162461bcd60e51b81526020600482015260156024820152742bb2903932b8bab4b9329036b7b9329032ba3432b960591b6044820152606401610157565b6001546040516000916001600160a01b03169034908381818185875af1925050503d8060008114610275576040519150601f19603f3d011682016040523d82523d6000602084013e61027a565b606091505b50509050806102c25760405162461bcd60e51b81526020600482015260146024820152732330b4b632b2103a379039b2b7321022ba3432b960611b6044820152606401610157565b600280546001810182556000919091528251805184926005027f405787fa12a823e0f2b7631cc41b3ba8828b3321ca811111fa75cd3aa3bb5ace019161030d91839160200190610483565b5060208201516001820180546001600160a01b0319166001600160a01b0390921691909117905560408201516002820155606082015160038201556080909101516004909101555050505050565b60606002805480602002602001604051908101604052809291908181526020016000905b8282101561047a57838290600052602060002090600502016040518060a00160405290816000820180546103b290610720565b80601f01602080910402602001604051908101604052809291908181526020018280546103de90610720565b801561042b5780601f106104005761010080835404028352916020019161042b565b820191906000526020600020905b81548152906001019060200180831161040e57829003601f168201915b50505091835250506001828101546001600160a01b031660208084019190915260028401546040840152600384015460608401526004909301546080909201919091529183529201910161037f565b50505050905090565b82805461048f90610720565b90600052602060002090601f0160209004810192826104b157600085556104f7565b82601f106104ca57805160ff19168380011785556104f7565b828001600101855582156104f7579182015b828111156104f75782518255916020019190600101906104dc565b50610503929150610507565b5090565b5b808211156105035760008155600101610508565b600080600060608486031215610530578283fd5b833567ffffffffffffffff80821115610547578485fd5b818601915086601f83011261055a578485fd5b81358181111561056c5761056c610771565b604051601f8201601f19908116603f0116810190838211818310171561059457610594610771565b816040528281528960208487010111156105ac578788fd5b8260208601602083013791820160209081019790975250979486013596505050604090930135925050565b6000602082840312156105e8578081fd5b5035919050565b60006020808301818452808551808352604092508286019150828160051b870101848801865b838110156106bc57603f19898403018552815160a08151818652805180838801528b92505b80831015610658578183018b015187840160c00152918a019161063a565b80831115610669578b60c082890101525b838b01516001600160a01b038116888d01529250838a0151878b01526060808501519088015260809384015193870193909352505094870194601f01601f191690920160c0019190860190600101610615565b509098975050505050505050565b6000826106e557634e487b7160e01b81526012600452602481fd5b500490565b60008160001904831182151516156107045761070461075b565b500290565b60008282101561071b5761071b61075b565b500390565b600181811c9082168061073457607f821691505b6020821081141561075557634e487b7160e01b600052602260045260246000fd5b50919050565b634e487b7160e01b600052601160045260246000fd5b634e487b7160e01b600052604160045260246000fdfea2646970667358221220c202dbb53f84cf8f966c889f9152d8cd6e3df6bc2b05d6734a1d099662d735d764736f6c63430008040033",
  "linkReferences": {},
  "deployedLinkReferences": {}
}